S0030000FC
S12310008E0FFFCE2000C680BD10B8CE2080C680BD10B88603B7DF008694B7DF007F2100CF
S12310200E8D5924FC168D6B86208D678D1286208D618D2A8D0220E9860D8D57860A2053F4
S123104086308D4F86788D4B17444444448D0117840F810A25048B3720398B302035378629
S1231060308D3086628D2C8D05588D0233398D01588D015886305D2A014C20173707360FE9
S1231080CE2000BD110816322504060C3339060D173339373616073617CE20800FBD10E5FD
S11910A00E24F50F7D2100260886B4B7DF007321003206323339FA
S11610B8FF10B6376F00085A26FAFE10B633C004E7013958
S11910CD37FF10CBFB10CCF710CC5FF910CBF710CBFE10CB333904
S12310E537E600E1012418E602FF10E38DDAA704FE10E36C005CE702E10125036F020D3363
S104110539AC
S12311086D0026020C3937E603FF11068DB7A604FE11066A005CE703E10125036F030D3344
S123112839F6DF00C5802723C5702703B6DF01C5012709B6DF01CE2000BD10E5C502270BEC
S1181148CE2080BD11082404B7DF013B8694B7DF007F21003BC5
S105FFF81129C9
S105FFFE1000ED
S9030000FC
