:030000001A0001E2
:0100100001EE
:030028001A610159
:200100003E00103C002030801C86013C802030801C860137F10037F10037F10037F14000D3
:200120000037F14E000037F13637F22837F328BAE7031C1210FF543C0020021CCD01035C6C
:200140001E56543C8020021C9D0103CFF937F137035C5E1E360D1C4101360AC8E43620C88F
:20016000E0A9F1CE05A8F1CE0C1F5427F03C00201C9D015C1F543C80201CCD015CCF032F2D
:20018000F01F37F1361FF4003700F86A04F40120F86802F4023CEC37009418FA1E56F0006C
:2001A0002EF00167C7035E0C1E86F4002652F4043AF0022EF73AF2032EEA265AF0022E86BF
:2001C000F00167C7023600F402265E0D1EE42EFE66FED6528EF40026F4043AF0032EF32E6B
:1301E0002CF0032E86F00167C7023600F40326245A0D1E1C
:201000003000F9AFFED630FF1E3400FDAFFED634FF1EEB6E1137F4EB6F1137CFE36F112940
:201020001C001039E5001CBE11483964001C4912EB5C1142EB601142E36E11291C001039F7
:20104000A0011CBE11483964001C4912EB5E1142EB621142EB70113700E3621148393200C0
:201060001C4912EB661142483932001CBE1149E362114AF972EB681142E3621148F8391CD2
:20108000BE1152E3601148F8391CBE1159F972483932001C4912E35C1170EB6A1142E360DE
:2010A0001148E36811491CBE11483932001C491252E3601148E36611491CBE1159F970FAE5
:2010C00070E35E1170EB621142E36A114AEB601142483932001C4912EB64114248491CBEC1
:2010E0001152E36211483932001C4912EB66114248491CBE1159F9707F0400CA11E3701169
:2011000087EB70116F10EB5910C73620C80CE370112E6F0AC702680768301C41011C36018C
:20112000CF05FE66CE01FFE36F1187EB6F116F1EEB1C10C1360D1C4101360A1C4101E36E5F
:1A1140001187EB6E116F0DEB1710C11E1C4101363D1C41011C71111A5D01E1
:2011710024FD66C62CFCAFC609362D1C41017DFFFF9250511C8B1159581E24FD66FED648D2
:20119100390A001CE311501C8B115A2568301A410136301A4101F835FB1252F935FA12FDEB
:2011B10030F935FB125924FB60F8602C1E20FA655640FCAFC6047DFFFF924841FCAFC604A4
:2011D1007DFFFF92491CA7115EFEAFFED67DFFFF921E22FB66FED6828ACE2F40FB13C40751
:2011F100FC31340030001E2350F8353400FE13FD30FC325A3400FE13FD31FC3341FE13524F
:201211003400F87058F83131001E3601C805FBA6FAA286FAAFC6F740380000C808FAA7FB40
:20123100A3F9A6F8A2F972C705818ECEF01EF9708ECEEA4940F9381E20FA655640FCAFC692
:1D125100047DFFFF924841FCAFC6047DFFFF92491CE3115EFEAFFED67DFFFF921E01
:0121000001DD
:00000001FF
