S0030000FC
S12301008E0FFF8603B7DF008614B7DF00BD01653F86202006860D8D02860AF6DF00C50274
S123012027F9B7DF013936DE42DF40BD037C8DE1328DE88DDCDE44DF407E037C8DD3863D3B
S12301408DD98DCDBD037C20CCDC429344270C2D0E2E04863F200A863E2006863D200286DA
S12301603C8DC320B0CE4650DF42CE6D60DF44862BBD0126BD0395BD013CCE4650DF42CEA5
S1230180B9B0DF44862BBD0126BD0395BD013CCEB9B0DF42CEB9B0DF44862BBD0126BD03E4
S12301A095BD013CCEB9B0DF42CE92A0DF44862DBD0126BD039CBD013CCE4650DF42CEB938
S12301C0B0DF44862DBD0126BD039CBD013CCE92A0DF42CEB9B0DF44862DBD0126BD039CED
S12301E0BD013CCE0064DF42CE012CDF44862ABD0126BD03C2BD013CCE00C8DF42CE006497
S1230200DF44862ABD0126BD03C2BD013CCE012CDF42CEFF38DF44862ABD0126BD03C2BD90
S1230220013CCE0064DF42CEFED4DF44862ABD0126BD03C2BD013CCEFF38DF42CEFF9CDFE9
S123024044862ABD0126BD03C2BD013CCE7530DF42CE0064DF44862FBD0126BD03E6BD0160
S12302603CCEFF38DF42CE0064DF44862FBD0126BD03E6BD013CCE8AD0DF42CEFF38DF4419
S1230280862FBD0126BD03E6BD013CCE8AD0DF42CE004EDF44862FBD0126BD03E6BD013C60
S12302A0CE1388DF42CE0FA0DF44BD0149CE1388DF42CE1388DF44BD0149CE0FA0DF42CE80
S12302C01388DF44BD0149CEEC78DF42CEF060DF44BD0149CEEC78DF42CEEC78DF44BD0154
S12302E049CEF060DF42CEEC78DF44BD0149CE7FBCDF42CE7F58DF44BD0149CE7FBCDF42F3
S1230300CE7FBCDF44BD0149CE7F58DF42CE7FBCDF44BD0149CE8044DF42CE80A8DF44BD24
S12303200149CE8044DF42CE8044DF44BD0149CE80A8DF42CE8044DF44BD0149CE4650DFEA
S123034042CE92A0DF44BD0149CE92A0DF42CE92A0DF44BD0149CE92A0DF42CE4650DF443A
S1230360BD014939DC40270EDC40270FCE000A02DF40378DF3328A307E011B3996402A0B1C
S1230380862DBD011BDC408D05DD408DD7394353CB01890039DC42D344DD4039DC429344C1
S12303A0DD4039DF4218DF449643D6453DDD409643D6443DDB40D7409642D6453DDB40D7B5
S12303C040399642984436DC442A03BD038E8FDC422A03BD038E188F8DC9324D2A07DC402A
S12303E0BD038EDD40399642984436DC442A03BD038E8FDC422A03BD038E02324D8F2A036B
S1090400BD038EDD40394E
S105FFF6FFF610
S105FFFE0100FC
S9030000FC
