S0030000FC
S123E000CE000A1F0001037EB600869397398600972486009735CEB600DF98CEB7FFDF9A59
S123E020CE0000DFAC8E005FBDE34DCE0041DF6996208A03972086D09768CC3F0DDD6BBDE6
S123E040E1B27F00A47C00A47F00A6963C842027358603B7DF00B6DF00847F26128612B7B1
S123E060DF00B6DF0084022706860197A62017B6D00C810F261086AAB7D00CB6D00C81AAA2
S123E0802604860297A67F00A5BDE345BDE0B196A6270597A5BDE0B17F00A5BDE394810D5E
S123E0A0271996A627F297A5BDE394810D270C20E7BDE36ECEE62DBDE505397F00A796A55F
S123E0C081012704860397A70F8E005F7F00A47C00A4BDE4F5863EBDE3BE5FBDE531CE00D1
S123E0E06B3A811827E2817F27DE810826055A2DD720E8810D26075D2717A7002013A700DF
S123E1005CC1232F08CEE677BDE50520BB812F26CA7F00C07F00967F00975FCE006BDFAEA8
S123E120BDE2FCBDE2E7CE008E3ABDE1A7A700810D2736BDE30C2731BDE2EE5CC1082F095F
S123E140CEE677BDE5057EE0C8812F26177D00C026095AD7A8CEE9047EE1A2CEE68FBDE5F0
S123E160057EE0C8BDE20120BAD7A8CEE53BDFB0DEB018CE008EE600C1FF2609CEE671BD41
S123E180E5057EE0C83CCB033ADFB0385F5CA60118A10026DB081808D1A82DF1DEB00909E5
S123E1A0EE00AD007EE0C881612D06817A2E02802039CE009CC6086F00085A2EFA3950596E
S123E1C058414243530002040607080901010100000001A600363CBDE3BE862DBDE3BEE635
S123E1E007A60ECE00603A4D2703BDE4DDBDE4EC3832393CCEE1BEBDE1D308815326F83887
S123E2003936373CBDE1A781302D2281392F0A81412D1A81462E168B09840FCE0096C60477
S123E220680169005A2EF9AA01A70120037C00C0383332397F00C07F00A87F00967F00976E
S123E240BDE2FCBDE2E7BDE2017D00C026087C00A8BDE2EE20ED397F00A87F00967F009745
S123E260BDE53181182704817F26037EE0C87F00C0BDE2017D00C026057C00A820E2397D91
S123E28000A827059697BDE28A398C003F27109C9825129C9A220E37E600C1FF332703BD4D
S123E2A0E2BFBDE2B4A700A10027083CCEE68ABDE505383937C602D73BA700C6032016376F
S123E2C0C616D73BC6FFE700C617200937C606D73BA700C60726015FD73B333CCE0D060920
S123E2E026FD387F003B393CDEAEA60038393CDEAE0820043CDEAE09DFAE3839BDE2E7BDE7
S123E300E30C2605BDE2EE20F3810D39812C270681202702810939BDE30C2702810D39BDB8
S123E320E394271881172605BDE39427FB817F270881182704810126037EE0C83936860150
S123E340B740003239368600B740003239CE00C418CEE367CC7E03A1002705A7001AEF01AC
S123E3603A8C010026F139865006CF7EE367363C96A581002605BDE43D201681012605BD38
S123E380E475200DCED00081022703CED008BDE3E73832393C8655973A86AA973A96A5268E
S123E3A005BDE44A201681012605BDE481200DCED00081022703CED008BDE41238393637B5
S123E3C03CD6A52605BDE4552016C1012605BDE49B200DCED000C1022703CED008BDE41DE6
S123E3E03833327C00A9398622A7028638A7028640A7028610A7028600B7D0048600B7D09A
S123E400058613A7008607A70086BBA7018605A70239A60184012704A603847F397D00A4CC
S123E42027108D0E810D2604860A2006810A260C860DE601C40427FA847FA7033986009775
S123E4402B8600972C860C972D39962E84202704962F847F397D00A427108D0E810D260476
S123E460860A2006810A260C860DD62EC58027FA847F972F39CEDF008603A7008616A70006
S123E48039CEDF00A600368430322706860197C2200484012704A601847F398D187D00A446
S123E4A02712810D2606860A8D0B2008810A2604860D8D0139CEDF00E600C50227F7847F8B
S123E4C0A70139FFFFFFFFFFFFFFFF44444444840F8B3081392F028B07BDE3BE3936A60011
S123E4E0368DE8328DE9320839BDE4DDBDE4DD8620BDE3BE39860DBDE3BE8600BDE3BE86BE
S123E5000D7F00A939BDE4F536A60081042714BDE3BE08BDE39427F1811726EDBDE394279F
S123E520FB20E6323936BDE4EF96A981142FF73239BDE3944D27FABDE3BE390541535345D6
S123E5404DEB1105425245414BE6DB0442554C4BE7960742554C4B414C4CE79A0443414C31
S123E5604CF9EA0444554D50E7A30545454D4F44E8380446494C4CE88802474FFA43044859
S123E580454C50F5F104484F5354FBB7044C4F4144FC55064D454D4F5259E8F0044D4F569A
S123E5A045E9C4064F4646534554FD690750524F43454544FA31085245474953544552FD94
S123E5C0AA0653544F504154FB19055452414345FAD406564552494659FC4D013FF5F10507
S123E5E058424F4F54FE1A017EFE920341534DEB11024246E88804434F5059E9C405455202
S123E600415345E796024D44E7A3024D4DE8F0025244FDAA02524DFDAA0452454144E9C4BB
S123E62002544DFBB70454455354FE93FF42554646414C4F20332E34202865787429202DEA
S123E640204269742055736572204661737420467269656E646C792041696420746F204C10
S123E6606F676963616C204F7065726174696F6E04576861743F04546F6F204C6F6E670495
S123E68046756C6C044F702D2004726F6D2D04436F6D6D616E643F04426164206172677578
S123E6A06D656E74044E6F20686F737420706F727404646F6E650463686B73756D206572EE
S123E6C0726F72046572726F722061646472200472637672206572726F7204BDE2FC260406
S123E6E0BDE77239812D2631BDE2EEBDE2E7BDE3172606BDE1B27EE6DBBDE234BDE317278C
S123E70007CEE698BDE50539BDE7815D2B08CE009C3A6F006F017EE6DBBDE234BDE317279A
S123E72007CEE698BDE50539BDE7815D2CADDE96A60036863FBDE28AE60032BDE28AC13FC8
S123E740270CDFB0CE00B0BDE4E9BDE772397F00967F00973CBDE781385D2A0ACEE680BD56
S123E760E505BDE7723918CE009C183ACDEF007EE6DBBDE4F5CE009CC604BDE4E95A2EFAB7
S123E780395FCE009C3AEE009C962601395C5CC1062FEFC6FF39DE982003CE003F86FFBD36
S123E7A0E2CC39DEAADFB0C6803ADFB2BDE2FC2735BDE2347D00A82726BDE3172621DE9698
S123E7C0DFB0C6803ADFB2BDE2FC271ABDE2347D00A8270BBDE2FC2606DE96DFB22007CECE
S123E7E0E698BDE50539DCB0DDAAC4F0DDB0BDE4F5CE00B0BDE4E9DEB05FBDE4EC5CC1101E
S123E8002DF85FDEB03AA60081202504817A23028620BDE3BE5CC1102DE9BDE31FDCB0C3C3
S123E8200010DDB01A93B2220E1A83000026BFDCB21A83FFF025B739BDE2FC2734BDE2342E
S123E8407D00A8273CBDE3172637DC96DDB0C307FFDDB2BDE2FC2711BDE2347D00A82721AE
S123E860BDE2FC261CDE96DFB2DEB0DF98DEB2DF9ABDE4F5CE0098BDE4E9CE009ABDE4E92C
S123E88039CEE698BDE50539BDE2FCBDE2347D00A8274FBDE30C264ADE96DFB0BDE2FCBD8F
S123E8A0E2347D00A8273BBDE3172636DE96DFB286FF97C1BDE2FC2711BDE2347D00A827D0
S123E8C021BDE2FC261C969797C1BDE31FDEB096C1BDE28AA10026119CB2270508DFB020DB
S123E8E0E939CEE698BDE50539CE00B0BDE4E939BDE2FC2718BDE234BDE2FC2707CEE698C3
S123E900BDE505397D00A82704DE96DFAABDE4F5CE00AABDE4E9DEAABDE4EC7F00967F0085
S123E92097BDE257BDE1A7DEAA81202731810A273E812B2743815E2748812D274481082763
S123E94040812F2745813D2741814F2743810D276F812E276ECEE68FBDE5057EE90DBDE292
S123E9607F08DFAA8FC40F27037EE9167EE90DBDE27F08DFAA7EE910BDE27F08DFAA7EE9CA
S123E9800DBDE27F09DFAA7EE90DBDE27F7EE90DDC9693AA81002606C1802313200881FF35
S123E9A02604C1812409CEE677BDE5057EE90D830001D7C3BDE4EFCE00C3BDE4EC7EE90D34
S123E9C0BDE27F39BDE2347D00A8272BBDE30C2626DE96DFB0BDE2347D00A8271ABDE317A7
S123E9E02615DE96DFB2BDE234BDE2FC26097D00A8270BDE96200ACEE698BDE50539DEB087
S123EA0008DFB4DEB49CB023289CB22224DCB293B0D3B4DDB4DEB2BDE31FA6003CDEB4BD31
S123EA20E28AA100262809DFB4389CB0271F0920E6DEB0BDE31FA6003CDEB4BDE28AA10077
S123EA40260C08DFB4389CB227030820E63938CE00B4BDE4E939EA68EA7BEA8EEA9DEAAA27
S123EA60EABDEAD5EAF0EAFD496D6D6564206D6F646520696C6C6567616C044572726F72B2
S123EA8020696E204D6E65207461626C6504496C6C6567616C20626974206F7004426164EC
S123EAA020617267756D656E74044D6E656D6F6E6963206E6F7420666F756E6404556E6BB6
S123EAC06E6F776E2061646472657373696E67206D6F646504496E64657865642061646459
S123EAE072657373696E6720617373756D65640453796E746178206572726F720442726117
S123EB006E6368206F7574206F662072616E676504CE0000DFBEBDE2FC2713BDE234BDE268
S123EB20FC2707CEEA9DBDE50539DE96DFBEDEBEDFB0BDE4F5CE00B0BDE4E9BDF363BDE5E3
S123EB4025863EBDE4D9BDEBF297BC815E2715812B2711812D270D812F2709813D27058135
S123EB6000260439BDE4F5BDE4EFBDE4EFBDE4EFBDE4EFBDE4EFBDEC3BC1052F08CEEAAA85
S123EB80BDE505202FC100272EBDEC8296B581FF2608CEEAAABDE505201ABDECBA810026F4
S123EBA007CE0000DFB6200F4A16CEEA563A3AEE00BDE5057F00BC96BC815E2704812D26D6
S123EBC007DEBE09DFBE2027810A2708812B2704810D261BDEB62606DEB0DFBE2011810A9A
S123EBE02704812B2605DEBE08DFB6DEB6DFBE7EEB2E5F860DCE006B3AA7005CC1232DF5A0
S123EC005FBDE531817F27318118272D81012729812E2725810327218104271D8108260563
S123EC205A2EDE20CDCE006B3ABDE1A7A700C1232C015CBDEC6726C9394F3986209791CE55
S123EC40006BDFAEBDE2FC5FBDE2E7BDE2EEBDE30C2713BDEC67270EBDE1A7CE008E3AA7FE
S123EC60005CC1052FE239810A2716810D2712815E270E812F270A812B2706812D2702816F
S123EC803D39CEEFE418CE008E2003C6063AA6008104260586FF97B53918A10026EDA601E9
S123ECA018A10126E6A60218A10226DFA60318A10326D8EC0497B4D7B539860497C17F005E
S123ECC0C2DEAE8C008E271BEC0008812C26F4C1592606860297C1200AC158260686019718
S123ECE0C12000BDE2FC81232607BDE2EE860097C1D6B5C10226037EED58C10126037EEDC8
S123ED005DC10526037EED64C10826037EED93C10726037EED9DC10326037EEDA6C1042602
S123ED20037EEDB4C11526037EEDE6C11026037EEE07C10926037EEE10C11226037EEE28F1
S123ED40C11126037EEE31C11326037EEE50C11426037EEE508602398618BDEFD996B4BDB9
S123ED60EFD94F39BDEFBB8104260139DC96DEB00808DFB893B8DDB81A83007F23091A8387
S123ED80FF80240386093996B4BDEFD996B9BDEFD94F3996C181002604860397C196C1811B
S123EDA0002603860139860097C397B2861897B3BDEEEC3996C1810226098618BDEFD986D3
S123EDC00197C196C181012604BDEF8C3996B48B10BDEFD9BDEFBB8104270ADC96BDEFD9E4
S123EDE017BDEFD94F3996C181002604860397C196C1810226037C00C2861A97C397B286FE
S123EE00CD97B3BDEEEC3996C18100260386013996C181002604860397C1860097C397B23A
S123EE2086CD97B3BDEEEC3996C18100260386013996C1810226037C00C28100260486032B
S123EE4097C1861897C397B3861A97B2BDEEEC39BDEEC68100260386033996C18102260975
S123EE608618BDEFD9860197C196B4BDEFD9BDEFBB81042601399697BDEFD996C1810126C0
S123EE8006BDE2EEBDE2EEBDEFBB81042601399697BDEFD996B5811426024F39BDEFBB81D8
S123EEA004260139DEB008DFB8DC9693B81A83007F230D1A83FF8024074FBDEFD9860939D1
S123EEC017BDEFD94F3996C1D6B581012601398102260139C114260796B4800897B439C14A
S123EEE013260796B4800C97B4394F3996C1810327138100272C810227418101274C81049E
S123EF00275786063996C3BDEFD196B4BDEFD9BDEFBB8104260139DC96BDEFD917BDEFD926
S123EF204F3996C3BDEFD196B4BDEFD9BDEFBB81042601399697BDEFD94F3996B3BDEFD154
S123EF4096B48B2097B4BDEF8C3996B2BDEFD196B48B2097B4BDEF8C39BDEFBB8104260173
S123EF603996C3BDEFD196A881022E0E96B48B10BDEFD99697BDEFD94F3996B48B30BDEF2C
S123EF80D9DC96BDEFD917BDEFD94F3996B4BDEFD9BDEFBB8104260139812C2703860839C0
S123EFA0BDE2EEBDE2E78159270A81582706FEEAD5BDE5059697BDEFD94F39BDE234BDEC0F
S123EFC0672705BDE30C26067D00A827013986043981002703BDEFD939DEB0BDE28ABDE4B8
S123EFE0ECDFB039414241201B01414258203A01414259203A02414443418903414443424C
S123F000C903414444418B0341444442CB0341444444C308414E44418403414E4442C40360
S123F02041534C20680441534C41480141534C42580141534C44050141535220670441534C
S123F0405241470141535242570142434320240542434C521D1442435320250542455120D2
S123F0602705424745202C05424754202E0542484920220542485320240542495441850329
S123F08042495442C503424C45202F05424C4F202505424C53202305424C54202D05424D49
S123F0A049202B05424E4520260542504C202A054252412020054252434C1F1342524E20F5
S123F0C02105425253451E13425345541C14425352208D0542564320280542565320290551
S123F0E0434241201101434C43200C01434C49200E01434C52206F04434C52414F01434C99
S123F10052425F01434C56200A01434D50418103434D5042C103434F4D206304434F4D41D6
S123F1204301434F4D425301435044208315435058208C09435059208C114441412019013A
S123F140444543206A04444543414A01444543425A014445532034014445582009014445CB
S123F16059200902454F52418803454F5242C803464449560301494449560201494E43200C
S123F1806C04494E43414C01494E43425C01494E53203101494E58200801494E59200802AC
S123F1A04A4D50206E044A5352208D074C44414186034C444142C6034C444420CC084C4460
S123F1C053208E084C445820CE094C445920CE114C534C2068044C534C4148014C534C4242
S123F1E058014C534C4405014C53522064044C53524144014C53524254014C5352440401CB
S123F2004D554C203D014E45472060044E45474140014E45474250014E4F502001014F52C7
S123F22041418A034F524142CA03505348413601505348423701505348583C01505348593E
S123F2403C0250554C41320150554C42330150554C58380150554C593802524F4C20690420
S123F260524F4C414901524F4C425901524F52206604524F52414601524F5242560152545F
S123F28049203B0152545320390153424120100153424341820353424342C20353454320F3
S123F2A00D01534549200F01534556200B0153544141870753544142C70753544420CD0783
S123F2C053544F50CF01535453208F0753545820CF1053545920CF1253554241800353550F
S123F2E04242C003535542448308535749203F0154414220160154415020060154424120A6
S123F3001701545041200701544553540001545354206D04545354414D01545354425D01D2
S123F320545358203001545359203002545853203501545953203502574149203E0158479C
S123F34044588F01584744598F024252534512164252434C131642534554141742434C5294
S123F360151704DEB0A600C6008118270A811A270581CD26045C5C5C08DFB6D7C3A60097CE
S123F380B408DFB6815F230F818D270B818F270781CF27037EF42ED6C3C1022504BDF5E84F
S123F3A039D6B45FBDF5175D2604BDF5E83996B4818D2604C605200A818F270481CF2605D7
S123F3C0C601BDF517D6B5C1012618D6C3C100270E96B4C602BDF5175D2604BDF5E839BD8D
S123F3E0F53A39D6B5C10526107D00C32704BDF5E839BDF53ABDF57039D6B5C1172704C146
S123F4001626117D00C32704BDF5E839BDF53ABDF5C82006BDF53ABDF554BDE4EFBDF5C8D5
S123F420D6B5C1132704C1162603BDF57039817F222AD6C3C1022504BDF5E839846F5FBD30
S123F440F5175D2604BDF5E839BDF53A96B484F081602604BDF55439BDF5D539818727045B
S123F46081C72604BDF5E83984CF5FBDF5175D2604BDF5E83996B484CF818D2604C60720AC
S123F48016818F2604C607200E81CF2604C61020068183260CC608BDF5175D2604BDF5E8B9
S123F4A039D6B5C1032708C1072704C108263196B484CF8183260FD6C3C1022509C615BD86
S123F4C0F517C608D7B5D6C3C1012704C103260C96B484B081A02704BDF5E839BDF592392C
S123F4E0D6C3C1012704C102261396B484CFD6B5C1092604C6112002C612BDF517D6C3C176
S123F50002250C96B484B081A02704BDF5E839C608D7B5BDF59239CEEFE4A104260F5D2741
S123F52004E1052608E605D7B5DFBA5C3937C6063AE600C1043326E25F39DEBAA600BDE470
S123F540D9A601BDE4D9A602BDE4D9A603BDE4D9BDE4EF39BDF5C8862CBDE4D9D6C3C1019E
S123F5602704C1032604865920028658BDE4D939DEB6E60008DFB65D2B033A2004095C2651
S123F580FCDFB8BDE4EF8624BDE4D9CE00B8BDE4E939BDF53A96B484B0818026178623BDC9
S123F5A0E4D9BDF5C8D6B5C108270139DEB6BDE4DDDFB63981902604BDF5C83981A0260442
S123F5C0BDF55439BDF5D5398624BDE4D9DEB6BDE4DDDFB6398624BDE4D9DEB6BDE4E9DF03
S123F5E0B639494C4C4F50043CCEF5E2BDE5083839CEF5F8BDE5053941534D205B3C6164A0
S123F60064723E5D20204C696E652061736D2F64697361736D0D20205B2F2C3D5D2020536C
S123F620616D6520616464722C202020202020205B5E2C2D5D2020507265762061646472C5
S123F6402C202020202020205B2B2C43544C4A5D204E65787420616464720D20205B4352A7
S123F6605D20204E657874206F70636F64652C202020202020202020202020202020202064
S123F680202020202020202020202020205B43544C412C2E5D2020517569740D4246203CBC
S123F6A061646472313E203C61646472323E205B3C646174613E5D2020426C6F636B206638
S123F6C0696C6C206D656D6F72790D4252205B2D5D5B3C616464723E5D2053657420757068
S123F6E020626B7074207461626C650D42554C4B2020457261736520454550524F4D2C206E
S123F7002020202020202020202020202020202042554C4B414C4C20204572617365204549
S123F7204550524F4D20616E6420434F4E4649470D43414C4C205B3C616464723E5D2043A0
S123F740616C6C20737562726F7574696E650D474F205B3C616464723E5D20457865637552
S123F760746520636F646520617420616464722C202020202020202050524F4345454420F3
S123F78020436F6E74696E756520657865637574696F6E0D45454D4F44205B3C6164647243
S123F7A03E205B3C616464723E5D5D204D6F6469667920454550524F4D2072616E67650D13
S123F7C04C4F41442C20564552494659205B545D203C686F73742064776E6C6420636F6D06
S123F7E06D616E643E20204C6F6164206F722076657269667920532D7265636F7264730D12
S123F8004D44205B3C61646472313E205B3C61646472323E5D5D20204D656D6F72792064D9
S123F820756D700D4D4D205B3C616464723E5D206F72205B3C616464723E5D2F20204D65CF
S123F8406D6F7279204D6F646966790D20205B2F2C3D5D202053616D6520616464722C20EB
S123F860205B5E2C2D2C43544C485D205072657620616464722C20205B2B2C43544C4A2CAF
S123F88053504143455D204E65787420616464720D20203C616464723E4F20436F6D70754C
S123F8A07465206F66667365742C202020202020202020202020202020202020205B435248
S123F8C05D2020517569740D4D4F5645203C73313E203C73323E205B3C643E5D2020426C7F
S123F8E06F636B206D6F76650D4F4646534554205B2D5D3C6172673E20204F6666736574BC
S123F90020666F7220646F776E6C6F61640D524D205B502C592C582C412C422C432C535D5E
S123F92020205265676973746572206D6F646966790D53544F504154203C616464723E2059
S123F94020547261636520756E74696C20616464720D54205B3C6E3E5D202054726163653D
S123F960206E20696E737472756374696F6E730D544D20205472616E73706172656E742000
S123F9806D6F6465202843544C41203D20657869742C2043544C42203D2073656E64206201
S123F9A0726B290D5B43544C575D2020576169742C202020202020202020205B43544C5867
S123F9C02C44454C5D2041626F72742020202020202020205B43525D20526570656174209F
S123F9E06C61737420636D640D04BDE2FC2713BDE234BDE2FC2707CEE698BDE50539DE96D9
S123FA00DF60DE6909CCFA16ED0009DF69BDFA877F00C17EFB72360797680F32DD66DF64CD
S123FA2018DF629F699EB2BDFAB4BDE4F5BDE1F339BDFB56BDE31F7F00C17C00C1BDFA87BE
S123FA407EFB72BDE2FC2713BDE234BDE2FC2707CEE698BDE50539DE96DF607F00C17C00AB
S123FA60C1BDFA877EFB72309EB2BDFB91BDFAB4DE6009DF607D00C12606DE690808DF69D5
S123FA80BDE4F5BDE1F3395FCE009C18CE00B63A183AEE00270AA60018A700863FBDE28A9F
S123FAA0CB02C1062FE2DEF5DFB4867E97F4CEFA67DFF5395FCE009C18CE00B63A183AEE8D
S123FAC000270618A600BDE28ACB02C1062FE6DEB4DFF5397F00C37C00C37F00A9BDE2FC82
S123FAE02713BDE234BDE2FC2707CEE698BDE50539969797C3D6C337DE60DFB0BDF3633396
S123FB00D7C3BDFB56BDE31FBDE525BDE1F37A00C32705BDE4F520DD39BDE2FC2718BDE274
S123FB2034BDE2FC2707CEE698BDE505397D00A82704DE96DFAADC601A93AA250ADCAAC340
S123FB40000A1A93602208BDFB56BDE31F20E7BDE4F5BDE1F339867E97D3CEFB8EDFF29600
S123FB606884BF9768C657DE0E3ADF1E962084FE9720BF00B2BE0069FE00603CFE00623CDA
S123FB80FE00643CFC00663637B60068363B309EB2A6009768EC019767D766EC03DD64ECFC
S123FBA005DD62EC07DD60C6083ADF6996208A0397208608970B3996A62607CEE6A5BDE5B6
S123FBC005397F00A4BDE33DBDFC27BDE3944D27108101271781022605BDFBF32003BDFC56
S123FBE03FBDFC334D27E4BDE3BE20DF7C00A4BDE3453996A78103270DCE002D1C00018D49
S123FC001D1D0001200DCED0088660A7028D0F8670A702860DBDFC3F860ABDFC3F3918CED6
S123FC206F9B180926FC39D6A537D6A7D7A5BDE36E2016D6A537D6A7D7A5BDE394200AD66C
S123FC40A537D6A7D7A5BDE3BE33D7A5397F00C17C00C120037F00C17F00C2BDE2FC2603A0
S123FC607EFBB7BDE1A781542616BDE2EEBDE2E7BDE2F4810D26097F00A496A597A7201BC0
S123FC807F00A4BDE33DBDFC27BDE2E7BDE2EE36BDFC3FBDE3BE32810D26EE96A791A52773
S123FCA003BDE31FBDFC334D27F1815326EDBDFC334D27FA8139274E813126DF7F00C3BD07
S123FCC0FD4CD697C002BDFD4CBDFD4C37DC96D3AC8F3309BDFD4C085A271B7D00C226BBDF
S123FCE07D00C126059697BDE28AA10027E6860297C2DFB420DE7D00C226A096C34C279BB5
S123FD00860397C22095BDFD4CD697BDFD4C5A26FAC664BDE2DB5A26FABDE394CC7E0DDDCF
S123FD206B7C00A4BDE345CEE6B296C281022608CE00B4BDE4E9201381012605CEE6D02050
S123FD400781032603CEE6B7BDE50539373CBDFC334D27FABDE201BDFC334D27FABDE20139
S123FD6096979BC397C33833397F00C3BDE2FC2728812D26097C00C3BDE2EEBDE2FCBDE2E7
S123FD80347D00A8271DBDE2FC2618DC967D00C32705CC00009396DDACBDE4F5CE00ACBDC0
S123FDA0E4E939CEE698BDE50539CEE1BEBDE2FCBDE1A7810D271CA100270EE60008C15317
S123FDC026F5CEE698BDE505393CBDE2EEBDE2FC3826EFBDE1F3BDE4F5BDE1D37F00967FFB
S123FDE00097BDE257BDE3172707CEE698BDE50539363C7D00A82714E607A60ECE00603A86
S123FE004D27059696A700089697A7003832E600C153270508810D26BD39BDE2FC260BCEDA
S123FE20C0FFDFB818CEC0002036BDE2347D00A8272718DE96BDE2FC260C18DFB8DCB8C3C7
S123FE4000FFDDB8201ABDE2347D00A8270BDE96DFB8BDE2FC26022007CEE698BDE5053985
S123FE60C6FFBDFE7818A600A72F1F2E50FC189CB82704180820EE39CE10008602A708A79F
S123FE80096F2D8622A72B860CA72DE72F1F2E50FC393986FFB710007F00A4BDE33DBDFCB3
S123FEA027867FBDFC3F860DBDFC3F7C00A4CE0070DFAE18CEFED118A60081042707A700D7
S123FEC008180820F27F00C1BDFC808E005F7EC0B363617420657662746573742E6F7574B2
S105FEE00D040B
S123FF7C7EE0C87EE1B27EE1F37EE2017EE2347EE2577EE27F7EE2E77EE2EE7EE2F47EE204
S123FF9CFC7EE31F7EE1A77EE30C7EE3177EE36E7EE3947EE3BE7EE4CB7EE4CF7EE4D97EE0
S11AFFBCE4DD7EE4EC7EE4E97EE4F57EE5057EE5087EE5317EE34D64
S123FFD600C400C700CA00CD00D000D300D600D900DC00DF00E200E500E800EB00EE00F15F
S10DFFF600F400F700FA00FDE0003B
S9030000FC
