S0030000FC
S12301008E0FFFCE2000C680BD0346CE2080C680BD03468603B7DF008694B7DF000EBD01B0
S12301205D3F0FCE2000BD03710E3986202006860D8D02860A36CE20800FBD03550E24F939
S123014086B4B7DF003239DF51BD0135863DBD0135BD02BC7E012B4F5D2A01433986F497FE
S12301604E86CF974FD64F8DEEDD53CE00E5DF55BD0302DE51DF53CE0064DF55BD0326DEEE
S123018051DF40DF44D64E8DCEDD53CE01A0DF55BD0302DE51DF53CE0064DF55BD0326DE29
S12301A051DF42DF467F0050DE46DF53CE0032DF55BD0326DE51DF4CDF53CE0032DF55BDE8
S12301C00302DC469351DD48DE44DF53DF55BD0302DE513CDE46DF53DF55BD0302323393F2
S12301E051DD53CE0032DF55BD0326DC51D3403736DE44DF53DE4CDF55BD0302DE513CDEF6
S123020044DF53DE48DF55BD0302DE51DF53CE0032DF55BD03263233D351DD51D351D342DD
S1230220DD4638DF44DF53CE0032DF55BD0326DE51DF4ADE46DF53CE0032DF55BD0326DE4A
S123024051DF4CDE4ADF53DF55BD0302DE513CDE4CDF53DF55BD03023233D3518300042ED3
S1230260107C0050965081102A037E01A88620200C9650800A2A048B3A20028B41BD0135BD
S1230280BD012224034D271B7C004F964F811E2A037E0165BD012F7C004E964E810D2A030E
S12302A07E016139DC51270EDC51270FCE000A02DF51378DF3328A307E01353996512A0BA6
S12302C0862DBD0135DC518D05DD518DD7394353CB01890039DC53D355DD5139DC539355F1
S12302E0DD5139DF5318DF559654D6563DDD519654D6553DDB51D7519653D6563DDB51D799
S123030051399653985536DC552A03BD02CE8FDC532A03BD02CE188F8DC9324D2A07DC5106
S1230320BD02CEDD51399653985536DC552A03BD02CE8FDC532A03BD02CE02324D8F2A0319
S1230340BD02CEDD5139373C6F00085A26FA3833C004E7013937E600E1012413E6023C3A5D
S1230360A704386C005CE702E10125036F020D33396D0026020C3937E6033C3AA604386A35
S1230380005CE703E10125036F030D3339F6DF00C580271CC5012709B6DF01CE2000BD0387
S11A03A055C502270BCE2080BD03712404B7DF013B8694B7DF003B70
S105FFF2038D79
S105FFF6FFF610
S105FFFE0100FC
S9030000FC
