S0030000FC
S123010000008E0FFFCE2000C680BD01ADCE2080C680BD01AD18FE0100186F2C860018A772
S12301202B862C18A72D7F21000E20013E8D5D24FB4D2713168D6086208D5C8D1386208DF0
S1230140568D2B8D0320E63F860D8D4B860A204786308D4386788D3F17444444448D01173A
S1230160840F810A25048B37202D8B3020293786308D2486628D208D05588D0233398D017B
S1230180588D015886305D2A014C200B3C0FCE2000BD01D80E3839363CCE20800FBD01BCB1
S12301A00E24F9FE010086ACA72D383239373C6F00085A26FA3833C004E7013937E600E1B6
S12301C0012413E6023C3AA704386C005CE702E10125036F020D33396D0026020C3937E606
S12301E0033C3AA604386A005CE703E10125036F030D333918FE0100181F2E0E0318A62F81
S1230200181F2E200918A62FCE2000BD01BC181F2E800BCE2080BD01D8240418A72F3B862C
S10802202C18A72D3B82
S105FFD601F430
S105FFF6FFF610
S105FFFE0102FA
S9030000FC
