S0030000FC
S12301008E0FFF8603B7DF008614B7DF00BD01653F86202006860D8D02860AF6DF00C50274
S123012027F9B7DF013936DE22DF20BD03848DE1328DE88DDCDE24DF207E03848DD3863DAB
S12301408DD98DCDBD038420CCDC229324270C2D0E2E04863F200A863E2006863D20028612
S12301603C8DC320B0CE4650DF22CE6D60DF24862BBD0126BD03A9BD013CCE4650DF22CEF1
S1230180B9B0DF24862BBD0126BD03A9BD013CCEB9B0DF22CEB9B0DF24862BBD0126BD0330
S12301A0A9BD013CCEB9B0DF22CE92A0DF24862DBD0126BD03B0BD013CCE4650DF22CEB970
S12301C0B0DF24862DBD0126BD03B0BD013CCE92A0DF22CEB9B0DF24862DBD0126BD03B025
S12301E0BD013CCE0064DF22CE012CDF24862ABD0126BD03D1BD013CCE00C8DF22CE0064E8
S1230200DF24862ABD0126BD03D1BD013CCE012CDF22CEFF38DF24862ABD0126BD03D1BDD2
S1230220013CCE0064DF22CEFED4DF24862ABD0126BD03D1BD013CCEFF38DF22CEFF9CDF3A
S123024024862ABD0126BD03D1BD013CCE7530DF22CE0064DF24862FBD0126BD0430BD0166
S12302603CCEFF38DF22CE0064DF24862FBD0126BD0430BD013CCE8AD0DF22CEFF38DF244E
S1230280862FBD0126BD0430BD013CCE8AD0DF22CE004EDF24862FBD0126BD0430BD013C0A
S12302A0CE1388DF22CE0FA0DF24BD0149CE1388DF22CE1388DF24BD0149CE0FA0DF22CE20
S12302C01388DF24BD0149CEEC78DF22CEF060DF24BD0149CEEC78DF22CEEC78DF24BD01F4
S12302E049CEF060DF22CEEC78DF24BD0149CE7FBCDF22CE7F58DF24BD0149CE7FBCDF2293
S1230300CE7FBCDF24BD0149CE7F58DF22CE7FBCDF24BD0149CE8044DF22CE80A8DF24BDC4
S12303200149CE8044DF22CE8044DF24BD0149CE80A8DF22CE8044DF24BD0149CE4650DF6A
S123034022CE92A0DF24BD0149CE92A0DF22CE92A0DF24BD0149CE92A0DF22CE4650DF24FA
S1230360BD01493996209A212714DE20DF222713CE000ADF24BD03F69623368DED328A306E
S12303807E011B39DE223CDE243C96202A0B862DBD011BDC208D0BDD208DC938DF2438DF5C
S12303A022394353CB01890039DC22D324DD2039DC229324DD20399623D6253DDD209623FD
S12303C0D6243DDB20D7209622D6253DDB20D720399622982436DC242A03BD03A2DD24DCBF
S12303E0222A03BD03A2DD228DCD324D2A07DC20BD03A2DD203996249A252733CE000120E9
S123040006DC2405DD240896242AF64F5FDD20200ADC2404DD24DC2005DD20DC229324DD80
S12304202225057C00212004D324DD220926E2399622982436DC242A03BD03A2DD24DC2233
S11904402A03BD03A2DD22BD03F6324D2A07DC20BD03A2DD20391A
S105FFFAFFFA08
S105FFFE0100FC
S9030000FC
