S0030000FC
S12301008E0FFFCE2000C680BD019FCE2080C680BD019F8603B7DF008694B7DF000E20019F
S12301203E8D5D24FB4D2713168D6086208D5C8D1386208D568D2B8D0320E63F860D8D4B3A
S1230140860A204786308D4386788D3F17444444448D0117840F810A25048B37202D8B3077
S123016020293786308D2486628D208D05588D0233398D01588D015886305D2A014C200B99
S12301803C0FCE2000BD01CA0E3839363CCE20800FBD01AE0E24F986B4B7DF0038323937EB
S12301A03C6F00085A26FA3833C004E7013937E600E1012413E6023C3AA704386C005CE798
S12301C002E10125036F020D33396D0026020C3937E6033C3AA604386A005CE703E101251C
S12301E0036F030D3339F6DF00C580271CC5012709B6DF01CE2000BD01AEC502270BCE20E3
S113020080BD01CA2404B7DF013B8694B7DF003BFD
S107FFF801E6FFFA21
S105FFFE0100FC
S9030000FC
