S0030000FC
S12301008E0FFFCE2000C680BD039FCE2080C680BD039F8603B7DF008694B7DF000EBD01FE
S1230120663F0FCE2000BD03CA0E3986202006860D8D02860A36CE20800FBD03AE0E24F97E
S123014086B4B7DF003239DF31BD0135863DBD0135BD02CD7E012B5F364D2A015337383969
S12301604F5D2A01433986F4972E86CF972FD62F8DEEDD33CE00E5DF35BD031ADE31DF337C
S1230180CE0064DF35BD0379DE31DF20DF24D62E8DCEDD33CE01A0DF35BD031ADE31DF33DE
S12301A0CE0064DF35BD0379DE31DF22DF267F0030DE26DF33CE0032DF35BD0379DE31DFA7
S12301C02CDF33CE0032DF35BD031ADC269331DD28DE24DF33DF35BD031ADE313CDE26DFF4
S12301E033DF35BD031A32339331DD33CE0032DF35BD0379DC31D3203736DE24DF33DE2CC9
S1230200DF35BD031ADE313CDE24DF33DE28DF35BD031ADE31DF33CE0032DF35BD037932F9
S123022033D331DD31D331D322DD2638DF24DF33CE0032DF35BD0379DE31DF2ADE26DF33B1
S1230240CE0032DF35BD0379DE31DF2CDE2ADF33DF35BD031ADE313CDE2CDF33DF35BD03F0
S12302601A3233D3318300042E107C0030963081102A037E01B18620200C9630800A2A0482
S12302808B3A20028B41BD0135BD012224034D271B7C002F962F811E2A037E016EBD012F08
S12302A07C002E962E810D2A037E016A3996319A322714DE31DF332713CE000ADF35BD031A
S12302C03F9634368DED328A307E013539DE333CDE353C96312A0B862DBD0135DC318D0BA5
S12302E0DD318DC938DF3538DF33394353CB01890039DC33D335DD3139DC339335DD313927
S12303009634D6363DDD319634D6353DDB31D7319633D6363DDB31D731399633983536DC8B
S1230320352A03BD02EBDD35DC332A03BD02EBDD338DCD324D2A07DC31BD02EBDD31399607
S1230340359A362733CE00012006DC3505DD350896352AF64F5FDD31200ADC3504DD35DC41
S12303603105DD31DC339335DD3325057C00322004D335DD330926E2399633983536DC3513
S12303802A03BD02EBDD35DC332A03BD02EBDD33BD033F324D2A07DC31BD02EBDD31393796
S12303A03C6F00085A26FA3833C004E7013937E600E1012413E6023C3AA704386C005CE796
S12303C002E10125036F020D33396D0026020C3937E6033C3AA604386A005CE703E101251A
S12303E0036F030D3339F6DF00C580271CC5012709B6DF01CE2000BD03AEC502270BCE20DF
S113040080BD03CA2404B7DF013B8694B7DF003BF9
S107FFF803E6FFFA1F
S105FFFE0100FC
S9030000FC
