:200000007620770A20D401D401D4010440D401C0C0044ED401C0C00437D4011F1000C913CF
:130020005501F501987AD400E40D1803090517040A1B6DD4
:20003400040D1B6604201B62CA3B0600CA38CC12BDCD12BE20CC12BF040ACC12C03F126119
:20005400CC12BD0C12BECD12BE6430CE207A016C12BD9860750186010E407A18053F001E09
:050074001B760A0117D4
:13008200609E003C3F117AC86F042D3F001E08681F003CD7
:20009600C87D0E6F01C10E6F00CC0F00CD0F013B5B3F0038060008673F001E3F00380F6FBD
:2000B60001C10F6F001B453F0038043D3F001E3F00380E6F01C10E6F003F00821F00343FEF
:1C00D60011AF1908180A1A0C043F1B0A043E1B06043D1B02043C3F00961F003454
:200F020046506D60B9B092A0012C00C8FF38FF9C0064FED40000004E75308AD013880FA03D
:0C0F2200EC78F0607FBC7F58804480A811
:2010000006160708042D3F00963F11693F00BD06160704042D3F00963F11693F00BD060200
:201020000704042B3F00963F11853F00BD06020706042B3F00963F11853F00BD06060706CD
:20104000042B3F00963F11853F00BD06020708042D3F00963F119A3F00BD06020706042D72
:201060003F00963F119A3F00BD06080706042D3F00963F119A3F00BD0612070A042A3F0018
:20108000963F12043F00BD060C0712042A3F00963F12043F00BD060A070E042A3F00963F83
:2010A00012233F00BD06120714042A3F00963F12233F00BD060E0710042A3F00963F1223B7
:2010C0003F00BD061A0712042F3F00963F12D93F00BD060E0712042F3F00963F12F83F00F0
:2010E000BD061C070E042F3F00963F12F83F00BD061C0718042F3F00963F12F83F00BD061B
:201100001E07203F00D5061E071E3F00D50620071E3F00D5062207243F00D5062207223FC3
:2011200000D5062407223F00D5062607283F00D5062607263F00D5062807263F00D5062AF8
:20114000072C3F00D5062A072A3F00D5062C072A3F00D5060207083F00D5060207023F00E1
:20116000D5060807023F00D5400F6F01C10F6F003B08CE6F0001CE6F011725FF750185017B
:2011800024FF8400170E6F0175018F6F01CE6F010E6F008F6F00CE6F00170E6F017701AFEC
:2011A0006F01CE6F010E6F00AF6F00CE6F00170E6F017701AF6F01C10E6F00AF6F00C80D4C
:0D11C00061140809B5049802248064011729
:2011CF00CA7D20C11B220A2B750152CA260A2552CA22B50198067501891888150A147501A5
:1111EF00D2CA0F0A0CD2CA090A096A0898580A4F17A4
:201204000E6F00C8770E6F01C8730F6F00C86F0F6F01C86B3F11CFCE6F0001CE6F01170E2E
:201224006F002F6F00C8340E6F01C10E6F003E117AC84901C8470F6F01C10F6F003E117A74
:1B124400CC120201CC12033F11CFCA100A0D3E117A0A09CE6F0001CE6F01174E
:201261000C12BF6C12C01405011B1475010C12C0D0CC12C00C12BFD0CC12BF7501850108F9
:201281003D9A6820C83AC8391B180832750150C82D082C50C82908297501D0C8240821D0F2
:1C12A100C81E08197701A817C8130810A810C80CB501980E080B6401C8071B14A2
:2012C300087975018877C87308708870C86CFD128B086B096A170E6F00C85F0E6F01C85B5A
:2012E3000F6F00C8570F6F01C8533F1261CE6F0001CE6F01170E6F002F6F00C8360E6F01D8
:20130300C10E6F003E117ACC12BD01CC12BE0F6F01C10F6F003E117ACC12BF01CC12C03F89
:131323001261CA100A0D3E117A0A09CE6F0001CE6F0117E4
:00000001FF
