S0030000FC
S12301008E0FFF8603B7DF008614B7DF00BD01663F86202006860D8D02860AF6DF00C50273
S123012027F9B7DF013936DE22DF20BD03858DE1328DE88DDCDE24DF207E03858DD3863DA9
S12301408DD98DCDBD038520CCBD040B9621270C2B0E2A04863F200A863E2006863D2002CF
S1230160863C8DC220AFCE4650DF22CE6D60DF24862BBD0126BD03F1BD013CCE4650DF22F3
S1230180CEB9B0DF24862BBD0126BD03F1BD013CCEB9B0DF22CEB9B0DF24862BBD0126BD1D
S12301A003F1BD013CCEB9B0DF22CE92A0DF24862DBD0126BD03FEBD013CCE4650DF22CE90
S12301C0B9B0DF24862DBD0126BD03FEBD013CCE92A0DF22CEB9B0DF24862DBD0126BD03CE
S12301E0FEBD013CCE0064DF22CE012CDF24862ABD0126BD045ABD013CCE00C8DF22CE00C4
S123020064DF24862ABD0126BD045ABD013CCE012CDF22CEFF38DF24862ABD0126BD045A17
S1230220BD013CCE0064DF22CEFED4DF24862ABD0126BD045ABD013CCEFF38DF22CEFF9CD2
S1230240DF24862ABD0126BD045ABD013CCE7530DF22CE0064DF24862FBD0126BD04D7BD57
S1230260013CCEFF38DF22CE0064DF24862FBD0126BD04D7BD013CCE8AD0DF22CEFF38DFCA
S123028024862FBD0126BD04D7BD013CCE8AD0DF22CE004EDF24862FBD0126BD04D7BD01D4
S12302A03CCE1388DF22CE0FA0DF24BD0149CE1388DF22CE1388DF24BD0149CE0FA0DF22B2
S12302C0CE1388DF24BD0149CEEC78DF22CEF060DF24BD0149CEEC78DF22CEEC78DF24BD27
S12302E00149CEF060DF22CEEC78DF24BD0149CE7FBCDF22CE7F58DF24BD0149CE7FBCDFB4
S123030022CE7FBCDF24BD0149CE7F58DF22CE7FBCDF24BD0149CE8044DF22CE80A8DF245F
S1230320BD0149CE8044DF22CE8044DF24BD0149CE80A8DF22CE8044DF24BD0149CE46508C
S1230340DF22CE92A0DF24BD0149CE92A0DF22CE92A0DF24BD0149CE92A0DF22CE4650DF3F
S123036024BD01493996209A212714DE20DF222713CE000ADF24BD048B9623368DED328AE4
S1230380307E011B39DE228D1EDE248D1A96202A0B862DBD011BDE208D4BDF208DC78D25B0
S12303A0DF248D21DF22393434360736DF2630A604A702A605A7039626A7049627A705DEE8
S12303C0263206323936073630EE04DF2630A602A704A603A705DE2632063231313943533F
S12303E0CB01890039DF26730026730027DE26083996239B2597219622992497203996239F
S123040090259721962292249720398DF196209A21271B96209822972196229824942198F3
S1230420202B077F00208601200486FF97209721397F00207F0021201A740024760025241F
S12304400C96239B21972196229920972078002379002296249A2526E0399622982436D6C9
S12304602596242A03BD03DE9724D725D62396222A03BD03DE9722D7238DB6324D2A0B965B
S123048020D621BD03DE9720D7213996249A252745C60120077800257900245C96242AF579
S12304A07F00207F0021200C74002476002578002179002096239025972396229224972219
S12304C025057C0021200C96239B2597239622992497225A26D2399622982436D6259624DA
S12304E02A03BD03DE9724D725D62396222A03BD03DE9722D723BD048B324D2A0B9620D6BB
S10C050021BD03DE9720D7213947
S105FFFAFFFA08
S105FFFE0100FC
S9030000FC
