S0030000FC
S12301008E0FFFCE2000C680BD049FCE2080C680BD049F8603B7DF008694B7DF000EBD01FC
S1230120643F0FCE2000BD04EF0E3986202006860D8D02860A36CE20800FBD04CC0E24F93B
S123014086B4B7DF003239DF31BD0135863DBD0135BD03197E012B7F003797382A037300FF
S123016037DE373986F4972E86CF972F962F8DE7DF33CE00E5DF35BD03EEDE31DF33CE00ED
S123018064DF35BD046BDE31DF20DF24962E8DC7DF33CE01A0DF35BD03EEDE31DF33CE005C
S12301A064DF35BD046BDE31DF22DF267F0030DE26DF33CE0032DF35BD046BDE31DF2CDF84
S12301C033CE0032DF35BD03EEDE31DF35DE26DF33BD0392DE31DF28DE24DF33DF35BD039D
S12301E0EEDE31BD033BDE26DF33DF35BD03EEDE31DF35BD0359DF33BD0392DE31DF33CE9C
S12302000032DF35BD046BDE31DF33DE20DF35BD0385DE31BD033BDE24DF33DE2CDF35BDF7
S123022003EEDE31BD033BDE24DF33DE28DF35BD03EEDE31DF33CE0032DF35BD046BDE3173
S1230240DF35BD0359DF33BD0385DE31DF33DF35BD0385DE31DF33DE22DF35BD0385DE3113
S1230260DF26BD0359DF24DF33CE0032DF35BD046BDE31DF2ADE26DF33CE0032DF35BD0404
S12302806BDE31DF2CDE2ADF33DF35BD03EEDE31BD033BDE2CDF33DF35BD03EEDE31DF33F0
S12302A0BD0359DF35BD0385DE31DF35CE0004DF33BD039F2B107C0030963081102A037E79
S12302C001AF8620200C9630800A2A048B3A20028B41BD0135BD012224034D271B7C002F33
S12302E0962F811E2A037E016CBD012F7C002E962E810D2A037E01683996319A322714DE9C
S123030031DF332713CE000ADF35BD041F9634368DED328A307E013539DE338D1EDE358DE1
S12303201A96312A0B862DBD0135DE318D4BDF318DC78D25DF358D21DF3339343436073618
S1230340DF3730A604A702A605A7039637A7049638A705DE373206323936073630EE04DF8D
S12303603730A602A704A603A705DE373206323131394353CB01890039DF377300377300F9
S123038038DE37083996349B36973296339935973139963490369732963392359731398D58
S12303A0F196319A32271B96319833973296339835943298312B077F00318601200486FFE1
S12303C097319732397F00317F0032201A740035760036240C96349B3297329633993197A5
S12303E03178003479003396359A3626E0399633983536D63696352A03BD03729735D736BB
S1230400D63496332A03BD03729733D7348DB6324D2A0B9631D632BD03729731D732399639
S1230420359A362745C60120077800367900355C96352AF57F00317F0032200C740035760B
S1230440003678003279003196349036973496339235973325057C0032200C96349B369723
S1230460349633993597335A26D2399633983536D63696352A03BD03729735D736D63496DD
S1200480332A03BD03729733D734BD041F324D2A0B9631D632BD03729731D7323955
S116049FFF049D376F00085A26FAFE049D33C004E70139C7
S11904B437FF04B2FB04B3F704B35FF904B2F704B2FE04B2333907
S12304CC37E600E1012418E602FF04CA8DDAA704FE04CA6C005CE702E10125036F020D33D2
S10404EC39D2
S12304EF6D0026020C3937E603FF04ED8DB7A604FE04ED6A005CE703E10125036F030D33B6
S123050F39F6DF00C580271CC5012709B6DF01CE2000BD04CCC502270BCE2080BD04EF24F0
S10E052F04B7DF013B8694B7DF003BFC
S107FFF80510FFFAF3
S105FFFE0100FC
S9030000FC
