S0030000FC
S1230100113D0110CE0FFF8603B7DF008614B7DF00BD016B3F86202006860D8D02860AF675
S1230120DF00C50227F9B7DF013934021F10BD03088DE235028DE88DDC1F30BD03081F1628
S1230140398DD2863D8DD88DCC1F60BD030820C9103731270C2D0E2E04863F200A863E2067
S123016006863D2002863C8DC120AE8E4650CE6D60862BBD012A103006BD01418E4650CE23
S1230180B9B0862BBD012A103006BD01418EB9B0CEB9B0862BBD012A103006BD01418EB9C1
S12301A0B0CE92A0862DBD012A103206BD01418E4650CEB9B0862DBD012A103206BD01416C
S12301C08E92A0CEB9B0862DBD012A103206BD01418E0064CE012C862ABD012A103811AFB5
S12301E0E1BD01418E00C8CE0064862ABD012A103811AFE1BD01418E012CCEFF38862ABDE6
S1230200012A103811AFE1BD01418E0064CEFED4862ABD012A103811AFE1BD01418EFF38F0
S1230220CEFF9C862ABD012A103811AFE1BD01418E7530CE0064862FBD012A34061411AEC2
S1230240E1BD01418EFF38CE0064862FBD012A34061411AEE1BD01418E8AD0CEFF38862F97
S1230260BD012A34061411AEE1BD01418E8AD0CE004E862FBD012A34061411AEE1BD014117
S12302808E1388CE0FA0BD01508E1388CE1388BD01508E0FA0CE1388BD01508EEC78CEF0A2
S12302A060BD01508EEC78CEEC78BD01508EF060CEEC78BD01508E7FBCCE7F58BD01508E72
S12302C07FBCCE7FBCBD01508E7F58CE7FBCBD01508E8044CE80A8BD01508E8044CE804412
S12302E0BD01508E80A8CE8044BD01508E4650CE92A0BD01508E92A0CE92A0BD01508E9276
S1230300A0CE4650BD0150393406104D2A09862DBD011FECE4104010381F068D0410393598
S123032086105D260586307E011F105D2711104F118E000A34048DF235028A307E011F391B
S105FFFAFFFA08
S105FFFE0100FC
S9030000FC
