S0030000FC
S12310008E0FFFCE2000C680BD10A7CE2080C680BD10A786049710861A97110E8D5924FCD3
S1231020168D6C86208D688D1286208D628D2A8D0220E9860D8D58860A205486308D5086EA
S1231040788D4C17444444448D0117840F810A25048B37203A8B3020363786308D31866268
S12310608D2D8D05588D0233398D01588D015886305D2A014C20183707360F3CCE2000BDD5
S123108010D23816322504060C3339060D173337361607360F173CCE2080BD10B638861EF7
S12310A097113206323339373C6F00085A26FA3833C004E7013937E600E1012413E6023CA0
S12310C03AA704386C005CE702E10125036F020D33396D0026020C3937E6033C3AA60438F8
S12310E06A005CE703E10125036F030D3339D611C5402621C58027089612CE2000BD10B687
S11C1100C520270ACE2080BD10D2240397133B861A971120F9961220E793
S105FFF010EE0D
S105FFFE1000ED
S9030000FC
