S0030000FC
S123010010CE0FFF8603B7DF008614B7DF00BD017D3F86202006860D8D02860AF6DF00C50E
S12301200227F9B7DF013934529F20BD03048DE235028DE88DDCDF20BD030435509F22DF54
S123014024398DCE863D8DD48DC8BD030420C7DC229324270C2D0E2E04863F200A863E2097
S123016006863D2002863C8DBE20AB34401F10E3E1DD203934401F10A3E1DD20398E46509A
S1230180CE6D60862BBD0127BD016BBD01428E4650CEB9B0862BBD0127BD016BBD01428E59
S12301A0B9B0CEB9B0862BBD0127BD016BBD01428EB9B0CE92A0862DBD0127BD0174BD015D
S12301C0428E4650CEB9B0862DBD0127BD0174BD01428E92A0CEB9B0862DBD0127BD0174F3
S12301E0BD01428E0064CE012C862ABD0127BD0356BD01428E00C8CE0064862ABD0127BD89
S12302000356BD01428E012CCEFF38862ABD0127BD0356BD01428E0064CEFED4862ABD0116
S123022027BD0356BD01428EFF38CEFF9C862ABD0127BD0356BD01428E7530CE0064862F8A
S1230240BD0127BD03B3BD01428EFF38CE0064862FBD0127BD03B3BD01428E8AD0CEFF3851
S1230260862FBD0127BD03B3BD01428E8AD0CE004E862FBD0127BD03B3BD01428E1388CE65
S12302800FA0BD014F8E1388CE1388BD014F8E0FA0CE1388BD014F8EEC78CEF060BD014F2F
S12302A08EEC78CEEC78BD014F8EF060CEEC78BD014F8E7FBCCE7F58BD014F8E7FBCCE7F5B
S12302C0BCBD014F8E7F58CE7FBCBD014F8E8044CE80A8BD014F8E8044CE8044BD014F8E02
S12302E080A8CE8044BD014F8E4650CE92A0BD014F8E92A0CE92A0BD014F8E92A0CE465011
S1230300BD014F3996202A0B862DBD011CDC208D24DD2096209A2127169E209F2227158E7A
S1230320000A9F24BD037C962334028DEC35028A307E011C394353CB018900399623D625AB
S12303403DDD209623D6243DDB20D7209622D6253DDB20D72039962298243402DC242A038B
S1230360BD0335DD24DC222A03BD0335DD228DCCA6E02A07DC20BD0335DD2039DC242732D4
S12303808E00012004584930014D2AF9DD244F5FDD20200CDC244456DD24DC205849DD2057
S12303A0DC22932425040C212002D324DD22301F26E239962298243402DC242A03BD0335BA
S11D03C0DD24DC222A03BD0335DD22BD037CA6E02A07DC20BD0335DD2039E5
S105FFFAFFFA08
S105FFFE0100FC
S9030000FC
