S0030000FC
S123010010CE0FFF8E2000C6801702728E2080C68017026A8603B7DF008694B7DF00860222
S1230120B7DF021CBFBD01663F34108E20001A401702771CBF359086202006860D8D0286F5
S12301400A34128E20801A401702411CBF24F786B4B7DF0035929F31BD0141863DBD01414B
S1230160BD02A87E013786F4972E86CF972FD62F1DDD338E00E59F35BD02FA9E319F338EA3
S123018000649F35BD03579E319F209F24D62E1DDD338E01A09F35BD02FA9E319F338E009F
S12301A0649F35BD03579E319F229F260F309E269F338E00329F35BD03579E319F2C9F33AB
S12301C08E00329F35BD02FADC269331DD289E249F339F35BD02FA9E3134109E269F339F9A
S12301E035BD02FA35069331DD338E00329F35BD0357DC31D32034069E249F339E2C9F35E7
S1230200BD02FA9E3134109E249F339E289F35BD02FA9E319F338E00329F35BD03573506A0
S1230220D331DD31D331D322DD2635109F249F338E00329F35BD03579E319F2A9E269F33F9
S12302408E00329F35BD03579E319F2C9E2A9F339F35BD02FA9E3134109E2C9F339F35BDEE
S123026002FA3506D3318300042E0E0C30963081101025FF398620200C9630800A2A048BA1
S12302803A20028B41BD0141BD012924034D27170C2F962F811E102DFED4BD013B0C2E9623
S12302A02E810D102DFEC33996312A0B862DBD0141DC318D24DD3196319A3227169E319F8F
S12302C03327158E000A9F35BD0320963434028DEC35028A307E0141394353CB01890039D8
S12302E09634D6363DDD319634D6353DDB31D7319633D6363DDB31D7313996339835340288
S1230300DC352A03BD02D9DD35DC332A03BD02D9DD338DCCA6E02A07DC31BD02D9DD313911
S1230320DC3527328E00012004584930014D2AF9DD354F5FDD31200CDC354456DD35DC3196
S12303405849DD31DC33933525040C322002D335DD33301F26E239963398353402DC352ADB
S123036003BD02D9DD35DC332A03BD02D9DD33BD0320A6E02A07DC31BD02D9DD313934141D
S12303806F805A26FB3514C004E7013934541F13E6C4E1412412E6423AA7046CC45CE74243
S12303A0E14125046F421A0135D46D8426031CFE3934541F13E6433AA6046AC45CE743E150
S12303C04125046F431A0135D43416F6DF00C580271CC5012709B6DF018E2000BD038CC5E7
S11C03E002270B8E2080BD03AA2406B7DF0135163B8694B7DF0035163BB7
S105FFF603C939
S105FFFAFFFA08
S105FFFE0100FC
S9030000FC
