S0030000FC
S10A007C0C8426020C83B67C
S10600857EE1D63F
S123E0008D0327FC39B6DF004412240CB6DF01847F817F26028608394F398D413402810D53
S123E020270F8108271EB7DF010C799679917825100F798D28860DB7DF018D21860AB7DF34
S123E040013502390D7927F90A79B7DF018D0E8620B7DF018D078608B7DF0120E43402B60A
S123E060DF00444424F935023910CE01EE966E8155260A9E6FA684811226026E848E021845
S123E0806F83300126FA8E02176F809F198EDEFE9F719F279F233089FF389F211F148EE098
S123E0A0E5CE0076C612BDE1C5CE00A7C604BDE1C5863997F0BDE4D18E00B59F8DCEEBE591
S123E0C0C60AEF815A26FB8615B7DF008EE11ABDF0F98EE0DD9F6F8655976E200412BDE411
S123E0E0EB7EE4393B1040FF00EBE50C8426020C83B600007EE1D67EE1D57EE0E47EEBE546
S123E100804FC7525932E234E3411DE2D4E1E50000000000000000000000003638303920BE
S123E120455854454E4445442042415349430D2843292031393832204259204D4943524F1E
S123E140534F46540D0D0034169E76DC789F6AD76C976D35960F738E00F4C601BDE00081AF
S123E1600826075A27EF301F20348115260A5A27E48608BDE01A20F681031A012705810D74
S123E180260D4F3401BDF0B96F848E00F33581812025C9817B24C5C1FA24C1A7805CBDE000
S123E1A01A20B92705BDEED89F7A6E9F007A7EE5BA96732603BDE0050F73975310260C6A10
S123E1C097567EEE36A680A7C05A26F939399D8227FB7EEA173B813A240A812026020E7CFD
S123E1E0803080D039F3D7F44BF3F000ADF67CF6D1EEEBEE1CEC98EEB1EE3BEE27F781F75D
S123E20049F752F8C3F8F5F817FA7DF851FF4FEE46EE63EE6AE1B1EC89FA85FB45FB157977
S123E220F12279F1197BF2297BF2EE7FF85A50EA7046EA6F464FD247CF5245CDA7454C53CD
S123E240C549C6444154C15052494ED44FCE494E5055D4454EC44E4558D44449CD524541CA
S123E260C45255CE524553544F52C55245545552CE53544FD0504F4BC5434F4ED44C49534C
S123E280D4434C4541D24E45D7455845C354524FCE54524F46C64445CC4445C64C494EC5A0
S123E2A052454E55CD454449D4544142A854CF5355C2544845CE4E4FD4535445D04F46C66A
S123E2C0ABADAAAFDE414EC44FD2BEBDBC46CE5553494EC75347CE494ED44142D35553D243
S123E2E0524EC45349CE504545CB4C45CE535452A45641CC4153C3434852A44154CE434F7B
S123E300D35441CE4558D04649D84C4FC7504FD35351D2484558A44C454654A45249474823
S123E32054A44D4944A4494E4B4559A44D45CD5641525054D2494E5354D2535452494E479A
S123E340A4E4FFE64AE6A7E6A7E6A7E6D8E6A4F081E706E7B3E5D1E898EAE9E7EDE63FE534
S123E360B3E684E5D5EEF2E5FAEEF9E60BE4CFE1A3FA78FA79FCF4FC38FF93FD7EF9044E93
S123E38046534E52474F4446434F564F4D554C425344442F304944544D4F534C5353544326
S123E3A04E4644414F444E494F464D4E4F4945445355464E45204552524F520020494E20C3
S123E3C0000D4F4B0D000D425245414B003064C6129F0FA68480802615AE019F119E3B2735
S123E3E0099C1127099E0F3A20E59E119F3B9E0F4D398D17DE4133419E433001A6823602E2
S123E4009C4726F8DF45394F58D31FC3003A250810DF1710931725EEC60CBDE4EBBDF0BD3C
S123E420BDF10C8EE37F3A8D318D2F8EE3B4BDF0F996684C2703BDF522BDF0BD8EE3C1BD0E
S123E440F0F9BDE155CEFFFFDF6825F69F839D7C27F0250BBDEFAE7EE588A6807EF10EBD87
S123E460E72B9E2B9FF1BDEFAED7038D4C2512DC47A384D31BDD1BEE843702A7809C1B260A
S123E480F896F3271CDC1BDD43DB038900DD41BDE3F2CE00EF3702A7809C4526F89E419FEC
S123E4A01B8D368D02209B9E19EC8427213304A6C026FCEF84AE8420F0DC2B9E19EE8427F6
S123E4C00910A3022306AE8420F31A019F473926FB9E196F806F809F1B9E19BDE67F9E27C4
S123E4E09F23BDE5B39E1B9F1D9F1F8E00C99F0BAEE410DE216FE20F2D0F2E0F086E8486D3
S123E500809708BDE74DBDE3CD326226049E0F3285C609BDE407BDE6ACDC683416C6A0BDE1
S123E520EA0FBDE8E3BDE8E1D654CA7FD450D750108EE5377EE98A8EF222BDF3719D828104
S123E540A426059D7CBDE8E1BDF3CABDE986DC3B3406868034021CAF8D609E839F2FA68049
S123E5602707813A27227EEA17A68197002772EC80DD689F83968C270F865BBDE01A9668CE
S123E580BDF529865DBDE01A9D7C8D0220C827294D102A01B881FF270F819E22C9BEE1087B
S123E5A0481F893A9D7C6E949D7C8197102714ED7EEA179E19301F9F3339BDE005270A81C5
S123E5C003271281132703977339BDE00527FB20EE9D8220021A0126319E839F2F0600324E
S123E5E0629E688CFFFF27069F299E2F9F2D8EE3C50D00102AFE427EE42E260EC6209E2D65
S123E6001027FE169F839E299F6839272CBDEB8134069E279D82270CBDEA0DBDEED8301F2F
S123E6209C7122181F10A3E125121F0383003A250B931B2507DF219F277EE4DE7EE4189D9F
S123E640821027FE94BDE4DE20191F899D7CC1A02716C1A12645C603BDE407DE839E688629
S123E660A134528D037EE5569D82BDE72B8D403001DC2B10936822029E19BDE4BD25173083
S123E6801F9F833926FD86FF973BBDE3CD1F148121270BC6048CC60E7EE41A7EEA17355262
S123E6A09F68DF838D068C8D069F8339C63A865FD7015F9E831F98D6019701A68427EC340C
S123E6C004A1E027E63001812227EA4C26023001818626E70C0420E3BDE8E19D8281812725
S123E6E005C6A2BDEA0F964F26130F048DB64D27BA9D7C818426F50A042AF19D7C9D8210A7
S123E70025FF657EE58EBDEEA6C681BDEA0F340281A1270481A026830A53260535047EE6BB
S123E7204C9D7C8D06812C27EF35849E749F2B246180309701DC2B811822DB58495849D306
S123E7402B5849DB018900DD2B9D7C20E2BDEAF29F3BC6AEBDEA0F96063402BDE8F6350220
S123E76046BDE8E810270C289E52DC2110A30224119C1B250DE684BDECA89E4DBDEDDE8EDB
S123E78000569F4DBDEE10DE4D9E3B3726A78410AF02393F5245444F0D007EE41A9609273A
S123E7A0079E319F687EEA178EE792BDF0F99E2F9F8339C6169E68300127DF8D01398122A1
S123E7C0260BBDE9E4C63BBDEA0FBDF0FC8E00F36F848D06C62CE7842016BDF10CBDF1090F
S123E7E0BDE155240532647EE5DDC62E399E33864F97099F35BDEAF29F3B9E839F2B9E35AB
S123E800A684260996092651BDF10C8DCD9F839D7CD60627239E8397018122270E301F4FE1
S123E8209701BDE147863A9701862C9702BDECB9BDE9E9BDE7682006BDF46FBDF3909D8212
S123E8402706812C1026FF529E839F359E2B9F839D822721BDEA0D209C9F83BDE6AC3001FA
S123E8604D260AC606EE812741EC81DD31A684818626E620989E35D6091026FD3AA6842794
S123E880068EE8877EF0F9393F45585452412049474E4F5245440D0026049E742003BDEAD3
S123E8A0F29F3BBDE3CD2704C60020471F143003BDF371A66897549E3BBDF11FBDF390302D
S123E8C069BDF3F3E068270CAE6E9F68AEE8109F837EE55632E8129D82812C26F49D7C8D51
S123E8E0BD8D131CFE7D1A010D0625032A998C2B96C6187EE41A8D6E4F8C34043402C60155
S123E900BDE407BDE9C30F3F9D8280AD25138103240F810149983F913F2564973F9D7C204F
S123E920E9D63F26331024006B8B07246799061027047789FF340248ABE08EE21F30863564
S123E94002A18424558D9C34028D299E3D3502261D4D1027006A204B0806598D098EE96B71
S123E960D73F0F0620D99E837EE67F64EA8FA184243120D3EC0134068D08D63F16FF7B7E42
S123E980EA17D654A68435203404D64F9E50DE5234546EA49E74A6E0272681642703BDE81B
S123E9A0E39F3D3504815A2719817D271554D70A3552975C9F5DDF5F3504D761D854D76247
S123E9C0D64F39BDFC0D0F069D7C24037EF46FBDEB3D2450812E27F481A7274081A627E3F6
S123E9E08122260A9E83BDECB39E649F833981A3260D865ABDE8FABDEB8843537EEC8F4C85
S123EA00272E8D06BDE8F6C6298CC6288CC62CE19F008326020E7CC6027EE41A867DBDE8E7
S123EA20FA7EF646BDEAF29F52960626957EF3719D7C1F89589D7CC13823037EEA17340453
S123EA40C12A251EC130241C8DC0A6E4BDE8F68DBCBDE8E63502DE523442BDEEA635023474
S123EA60068E8D9E3504BEE10D3AAD947EE8E3864F9703BDEB88DD01BDF3A7BDEB880D0316
S123EA8026069401D40220049A01DA027EEC8FBDE8E8261096618A7F945D975D8E005CBDF8
S123EAA0F3F320360F060A3FBDEDF2D7569F589E5FBDEDF496563404A0E0270786012403DD
S123EAC0D656409754DE585C5A2604D654200BA680A1C027F3C6FF240150CB0159D40A276B
S123EAE002C6FF7EF3D9BDEA0DC6018D089D8226F5395F9D82D70597379D828D401025FF36
S123EB00165FD7069D7C25048D33250A1F899D7C25FC8D2924F8812426060306CB809D7C7C
S123EB20D7389A088028102700750F089E1BDC379C1D271210A381273E300520F38141252F
S123EB4004805B80A5398E0074EEE41183EA272728DC1FDD43C30007DD419E1D9F47BDE368
S123EB60F29E419F1F9E459F1D9E47DC37ED814F5FED84ED02A7049F393990800000009D86
S123EB807CBDE8E196542B5DBDE8E3964F819025088EEB7ABDF3F3264CBDF425DC5239DC31
S123EBA0053406125F9E3734148DD435349F37DE5234605C9D82812C27EBD703BDEA073529
S123EBC006DD059E1D9C1F2721DC3710A3842706EC02308B20EFC6129605260BD603E104FA
S123EBE02759C6108CC6087EE41ACC0005DD64DC37ED84D603E704BDE4079F41C60B4F0DD6
S123EC000527053506C30001ED058D5DDD6430020A0326E89F0FD30F1025F7FC1F01BDE4DD
S123EC200B830035DD1F4F301FA7059C0F26F89E41961F9341ED029605262DE604D7034FA6
S123EC405FDD643506DD5210A305243ADE6427048D17D35230020A0326E7EDE358495849FC
S123EC60E3E1308B30059F393986109745EC05DD174F5F5849250F086509642404D31725E0
S123EC80050A4526EE397EEBE21F40931F214F0F06DD50C6907EF3DFBDE8E3CE01F0BDF522
S123ECA03932628E01EF200B9F4D8D5C9F58D75639301F86229701970230019F629F58C691
S123ECC0FF5CA680270C91012704910226F381222702301F9F64D756DE62118301F02207DA
S123ECE08DC69E62BDEDE09E0B8C00F12605C61E7EE41A9656A700DC58ED0286FF97069F0B
S123ED000D9F5230059F0B390F074F3406DC23A3E0109321250ADD239E2330019F25358456
S123ED20C61A030727CA8D04350420DE9E279F234F5FDD4B9E219F478E00C99C0B27048D74
S123ED403220F89E1B9C1D27048D2220F89F419E419C1F2735EC02D341DD41A6012AF0E664
S123ED600458CB053A9C4127E88D0820F8A60130022A14E6842710EC021093232209109356
S123ED804723049F4BDD473005399E4B27FB4FE6845AD347DD439E239F41BDE3F49E4BDC33
S123EDA045ED029E45301F7EED2EDC523406BDE9C3BDE8E635109F62E6849E52EB842405BC
S123EDC0C61C7EE41ABDECA89E62E6848D109E4D8D228D0C9E628D1CBDECE77EE908AE02EE
S123EDE0DE255C2004A680A7C05A26F9DF2539BDE8E69E52E6848D182613AE07301F9C23C3
S123EE0026083404D323DD233504300139AE02399C0D26079F0B301B9F0D4F398D037EEC0D
S123EE208E8DCC0F065D39BDEEA9C601BDED089653BDECACA78432627EECE78D0220DF8D06
S123EE40E0275EE684398D484FE1842303E6844F3406BDECAA9E4D8D9B35043A3504BDED48
S123EE60E020D58D2BA0844020DFC6FFD7539D8281292705BDEA0D8D2D8D1527245F4AA115
S123EE808424CD1F89E08450D15323C4D65320C0BDEA07EEE4AE659F4DA664E66432671FFE
S123EEA0357EEBE59D7CBDE8E1BDEB844D26F20E82BDEE21102702DEDE839F833AA684340D
S123EEC0526F849D82BDF46F3552A784DF83398D079F2BBDEA0D20CEBDE8E196542BC2966A
S123EEE04F819022BCBDF4259E52398DEEE6847EEC8E8DDB9E2BE784393401BDE72BBDE47A
S123EF00B99F66350127129D82271381A726099D7C2706BDE72B270639CEFFFFDF2B32622B
S123EF209E66BDF0BDBDE1AEEC8426037EE4399F66EC0210932B22F4BDF529BDF1099E6672
S123EF408D10AE9F0066CE00F4A6C027D5BDF10E20F73004108E00F4A68027512B15813A07
S123EF60260DE684C18427F0C18327EC8C86218D3020E5CEE0FB81FF2604A6803345847F54
S123EF80334A6DC427E7A0C42AF6ABC4EE414A2B066DC02AFC20F7A6C48D066DC02AF8203E
S123EFA0B7108C01ED2406847FA7A06FA4399E83CE00F30F430F44A68027210D43270FBD14
S123EFC0EB3D241881302504813923100F438120270A9742812227380D442719A7C02706DE
S123EFE0813A27CF20D16FC06FC01F308300F18E00F29F8339813F2604868720DF812726AB
S123F00013CC3A83EDC10F42A68027D0914227CCA7C020F481302504813C25C0301F3450A4
S123F0200F41CEE0FB0F42334AA6C4273110AE41AEE4E6A0E08027FAC18026383262354003
S123F040DA4296412606C1842606863AEDC12094E7C0C18626020C44C18227AA2086CEE12B
S123F06000034126C03550A680A7C0BDEB3D25EC034320E80C424A27AE313FE6A02AFC2063
S123F080AF27368D0139273E819F2753812C2737813B2760BDE8F6960634022606BDF536CB
S123F0A0BDECB18D573504BDE1475D26089D82812C27148D549D8226CF860D2051BDE14780
S123F0C027F7966C26F339BDE147270AD66CD16B25068DE5201ED66CD06A24FC502010BD72
S123F0E0EEA481291026F92FBDE147D06C23058D185A26FB9D7C7EF086BDECB3BDEDF25CA8
S123F1005A27C3A6808D0720F786208C863F7EE01A8EF61D2009BDF28C035403622003BDC6
S123F120F28C5D102702808E005C1F895D276CD04F2769250A974F966197548E004F50C121
S123F140F82F594F6401BDF217D6622A0B630163026303630443890097639653996097531C
S123F1609652995F97529651995E97519650995D97505D2A4425028D5D5F9650262E9651DD
S123F18097509652975196539752966397530F63CB08C1282DE44F974F9754398D6D5F20EE
S123F1A0A85C086309530952095109502AF3964F3404A0E0974F23DE8C2508086386009790
S123F1C063200C0C4F2728065006510652065324048D0D27EE3903540350035103520353DB
S123F1E09E5230019F5226069E5030019F5039C60A7EE41A8E0012A6049763A603A704A6FC
S123F20002A703A601A702965BA701CB082FE89663C008270C6701660266036604465C260C
S123F220F43981000000008D6327608D7886009713971497159716D6538D22D663D78BD623
S123F240528D1AD663D78AD6518D12D663D789D6508D0CD663D788BDF3687EF17927954362
S123F2609613562726241696169B6097169615995F97159614995E97149613995D46971386
S123F28006140615061606634F20D539EC0197618A80DD5DD661D854D762EC03DD5FA68419
S123F2A0975CD64F394D27169B4F464928108B80974F270C9662975439965443200232629B
S123F2C0102AFED27EF1EFBDF3BC270D8B0225F40F62BDF12A0C4F27EB398420000000BD2C
S123F2E0F3BC8EF2DA5FD762BDF3718C8D9E2773004F8DB10C4F27CC8E0013C604D703C611
S123F300019650915D26139651915E260D9652915F2607965391602601431FA859240AE754
S123F320800A032B34272EC6011F8A250E0860095F095E095D25E32BC820DF9660905397DE
S123F34060965F9252975F965E9251975E965D9250975D20D8C64020D0565656D7638D0826
S123F3607EF179C6147EE41A9E139F509E159F52393402EC0197548A80DD500F63E684AEFF
S123F380039F52D74F35828E004520068E00408C9E3B964FA78496548A7F9450A7019651F6
S123F3A0A702DE52EF0339966197549E5C9F4F0F63965E975196549E5F9F5239DC4FDD5CB8
S123F3C09E519F5E9E539F604D39D64F2708D65459C6FF250150398DF1D7500F51C6889693
S123F3E0508080D74FDC74DD52976397547EF1750F5439E68427D3E601D8542BD1D64FE136
S123F40084261DE601CA7FD450E1012613D651E102260DD652E1032607D653E004260139CF
S123F42056D85420ABD64F273DC0A096542A05035BBDF1D88E004FC1F82E06BDF20B0F5BA7
S123F440390F5B96544906507EF217D64FC1A0241D8DD2D7639654D754808086A0974F96DE
S123F4605397017EF175D750D751D752D753399E749F549F4F9F519F529F479F452564BDFA
S123F480FBAC812D260403552004812B26049D7C2551812E2728814526289D7C256481A72C
S123F4A0270E812D270A81A62708812B2704200603489D7C254C0D482708004720040346D4
S123F4C026CC96479045974727122A09BDF2DF0C4726F92007BDF2C70A4726F996552A8E8A
S123F4E07EF646D645D046D7453402BDF2C73504C0308D022098BDF38CBDF3D98E00407ED4
S123F500F11FD6475858DB475880303404ABE09747209F9B3EBC1FFD9E6E6B27FD9E6E6BBD
S123F52028008EE3BB8D0CDC68DD50C69043BDF3E38D037EF0F9CE01F18620D6542A028604
S123F5402DA7C0DF6497548630D64F102700C64FC18022088EF51DBDF22786F797458EF501
S123F56018BDF3FD2E0F8EF513BDF3FD2E0EBDF2C70A4520F1BDF2DF0C4520E2BDF111BDD3
S123F580F425C60196458B0A2B09810B24054A1F8986024A4A9747D7452E0DDE64862EA74E
S123F5A0C05D27048630A7C08EF622C6809653AB0397539652A90297529651A901975196EA
S123F5C050A98497505C565928E32403C00B50CB2F30041F98847FA7C00A452604862EA748
S123F5E0C053C4808CF64626C4A6C2813027FA812E2602335F862BD647271C2A03862D501A
S123F600A7428645A741862F4CC00A24FBCB3AED436F452004A7C46F418E01F139800000FF
S123F6200000FA0A1F0000989680FFF0BDC0000186A0FFFFD8F0000003E8FFFFFF9C000018
S123F640000AFFFFFFFF964F27020354399F64BDF38C8D058D088E00407EF2279F64BDF384
S123F660879E64E680D7559F648DEE9E6430059F64BDF11F8E00450A5526EE39BDF3CA2BC2
S123F6801F27158D10BDF38C8D0E8E00408DCA8EF222BDF11F7EF44B9EB19F509EB39F52C6
S123F6A0BEF6CD9F5DBEF6CF9F5FBDF22DDC8AC3658BDDB3DD52DC88C9B08905DDB1DD506E
S123F6C00F548680974F961597637EF17940E64DABBDF3BC8EF716D661BDF2E6BDF3BC8D60
S123F6E0B40F62965CD64FBDF1198EF71BBDF116965434022A09BDF11196542B05030ABDA9
S123F700F6468EF71BBDF11F35024D2A03BDF6468EF7207EF64D83490FDAA27F0000000056
S123F7200584E61A2D1B862807FBF88799688901872335DFE186A55DE72883490FDAA2A10C
S123F74054468F138F524389CD8EF77CBDF11F7EF6D1BDF38C0F0A8DF68E004ABDF3928E5C
S123F7600040BDF3710F54960A8D0C0D4F1027FA7E8E004A7EF2EC34027EF6FF81490FDAED
S123F780A2965434022A028D24964F3402818125058EF2228DDE8EF7B1BDF64D3502818103
S123F7A025068EF77CBDF11635024D2A037EF646390B76B383BDD3791EF4A6F57B83FCB09A
S123F7C0107C0C1F67CA7CDE53CBC17D1464704C7DB7EA517A7D6330887E7E9244993A7EAF
S123F7E04CCC91C77FAAAAAA138100000000037F5E56CB7980139B0B6480763893168238DC
S123F800AA3B20803504F334813504F334808000000080317217F8BDF3CA102FF3C78EF8F3
S123F82003964F808034028680974FBDF11F8EF808BDF2EC8EF222BDF1168EF7EEBDF64DEB
S123F8408EF80DBDF11F3504BDF4F68EF8127EF227BDF3BC8EF61DBDF37127674D26037E85
S123F860F1978E004ABDF3925F96612A10BDF44B8E004A9661BDF3FD260343D601BDF3A93E
S123F8803404BDF8178E004ABDF2278D363502461025FDB2398138AA3B29077134583E56F6
S123F8A074167EB31B772FEEE3857A1D841C2A7C6359580A7E75FDE7C6803172181081000E
S123F8C00000008EF895BDF227BDF38C964F818825037EF2B9BDF44B96018B8127F44A3480
S123F8E0028E0040BDF1168EF89ABDF65C0F623502BDF2A539BDF3CA2B037EF44B03548DC3
S123F900F97EF646BDFD32326286019798BDE4B91025ED82BDEF521F208300F5D797DC2BD2
S123F920BDF529BDF1098E00F4D69826255FBDFA58BDFF8A250B80303402860A3DEBE02074
S123F940EDC001C90181412605BDF0B920BB814C260B8D310F98BDF0B920C33262810D2609
S123F9600D8D22BDF0B98E00F49F837EE462814527F181512606BDF0B97EE4398D0220ADC0
S123F980812026108CC6F9A6842708BDE01A30015A26F439814426486D8427F78D045A2600
S123F9A0F7390A97311F3121A621A7A426F839814927138158270D8148265C6F841F108366
S123F9C000F5D7978DBFBDFA58810D278E811B2725810826228C00F427EC8D458DC420E6AD
S123F9E0814326CB6D84270EBDFA58250220F5A7808D375A26EE39D697C1F9260220C734E1
S123FA00106D8026FCE682E701ACE426F83262A7808D170C9720AF810826128D045A26FB27
S123FA20398C00F427D0301F86087EE01A814B2705805327013934028D1E3402A684271613
S123FA406D6126068DE430012003BDF9A2A684A1E426E95A26E635A0BDE000817F24F98157
S123FA605F2602861B810D270E811B270A81082706812025E31A0139864F978C398600D68A
S123FA80791D7EEC8FBDEA0ADC1F3406BDEAF2BDEA0735061E109C1F26517EEC8F9D7CBD3C
S123FAA0EA0ABDEAF23410EC02109321230493272312E684BDED083410AE62BDEDDE35502C
S123FAC0AF423440BDEED334045D271FC6FF81292703BDEED33404BDEA07C6AEBDEA0F8DB0
S123FAE02E1F13AE62A684A06124037EEBE54CA1E42402A7E4A6611E89AE025A3A4D270DFD
S123FB00A1E42302A6E41F891E31BDE1C53596BDE8F67EEDEFBDEA0ABDEEA63404BDEA0DA5
S123FB20BDE8F6BDEA0796062605BDEEA92003BDEE3F3404E661BDECAA35062705A7805A96
S123FB4026FB7EEE36BDEA0ABDE8F6C601340496062610BDEEA9E7E42791BDEA0DBDE8F69B
S123FB60BDE8E69E523410BDEA0DBDFB0F3414BDEA07AE63BDEDF43404E1662523A66127AD
S123FB801CE6665A3A3184EE62E661A6E4A0664CA161250CA680A1C0260C5A26F7E666216D
S123FBA05F32677EEC8E6C66302120D98126265C32620F520F538E00529D7C814F27128132
S123FBC04827239D82200C81381022EE4AC6038D2A9D7C25F20F500F510F060F630F54C602
S123FBE0A0D74F7EF1799D7C250BBDEB3D25E6814724E28007C6048D0220EB6801698410FB
S123FC0025F5EC5A26F58030AB01A7013935400F069E839D7C8126279981B0275E81FF26A1
S123FC20089D7C8183102700AB9F836EC49E68300126D9C6167EE41AAE9F00838CFF8310E9
S123FC402700748D238DE6BDEA0AC680D708BDEAF28D25BDEA07C6AEBDEA0F9E4BDC83EDB4
S123FC6084DC39ED027EE6A4C6B0BDEA0FC680D7088A80BDEAF79F4B7EE8E38DEB3410BD4B
S123FC80EA028DF43540C632AE4227A9109E83EEC4DF83A6043402EC84EE023476BDF39255
S123FCA0BDE8E13576ED84EF023502A7049D821026ED64109F83399D7C8D0934108D2D35D8
S123FCC040AFC4395F9D7C240680301F899D7C9E8D583A398DEEAE843410BDEA028E004FB4
S123FCE096062707BDEDF29E52960639C6AEBDEA0F7EEED81027EEEDBDE72BBDE4B99F93FA
S123FD009D82271081A7263B9D7C27048D24200486FF972BDE938CEEC4ECC42706EC429353
S123FD202B23F49E938D15BDE4D99E93BDE4A97EE439BDE72B7EE1CEA6C0A78011931B26AC
S123FD40F79F1B39BDFC2D9D7C8122260BBDE9E4C63BBDEA0FBDF0FC327EBDE7E03262BD73
S123FD60EAF29F3BBDE8E68E00F34FBDECB77EE768BDE72B9E2B399E919F2B7EE4B9BDE4BB
S123FD80DECC000ADD95DD8F5FDD919D8224068DE09F959D82271BBDEA0D24068DD39F9147
S123FDA09D82270EBDEA0D24068DC69F8F2749BDE1CE8DC39F939E958DBF9C93253A8D1C78
S123FDC0BDFE52BDE4A78DAF9F938D3A8D0F8D36BDFEEDBDE4DEBDE4A77EE439864F979828
S123FDE09E93DC958D150D982602ED02AE848D0BD38F250481FA25EE7EEBE53406EC8435EF
S123FE000626023262399E19301F30018DED30033001A68427F49F0F4A270C4A272A4A2653
S123FE20EF8603A78020E7EC016A0227014FE6036A0427015FED01DD2BBDE4B99E0F25E167
S123FE40DC476C80ED8420C66F84AE01AE029F4720EA9E1920049E8330018D9F300230013A
S123FE609F839D7C4D27EF2AF99E8381FF27EF81A227128184270E818126E79D7C81A02700
S123FE800481A126DB9D7C25049D8220D79E833410BDE72B9E83A682BDFF8A25F930011FAE
S123FEA010E061C0052720250A3384503085BDFD3C20149F479E1B9F435030859F419F1BAC
S123FEC0BDE3F29E459F8335108601A784A702A704D62B2604C6016C02E701D62C2604C602
S123FEE0016C04E7039D82812C279A209C9E19301F3001EC02DD68BDFDFB30033001A684AD
S123FF0027EF4A271B800226F334108EFF4ABDF0F9AEE4EC01BDF529BDF522BDF0B9351006
S123FF203410EC01DD52BDFBD5BDF5363540C6053001A68427055AA7C020F530C45D27BE15
S123FF4031C433C5BDFD3C30A420B3554C2000BDEEDB8E01F0C60434045F860408530952AC
S123FF60594A26F85D260AA6E44A27058C01F0270CCB30C1392302CB07E7806F8435045AA6
S11FFF8026D532628E01EF7EECB381302504803A80C63981891027FDAB7EEA17BC
S113FFF00000009B009E00AA00A700A100A4E069E5
S9030000FC
